:100000000C9446000C9450000C9450000C9450003A
:100010000C9450000C9450000C9450000C94500020
:100020000C9450000C9450000C9450000C94500010
:100030000C9450000C9450000C9450000C94500000
:100040000C9450000C9450000C9450000C945000F0
:100050000C9450000C9450000C9450000C945000E0
:100060000C9450000C9450000C9450000C945000D0
:100070000C9450000C9450000C9450000C945000C0
:100080000C9450000C9450000C94500011241FBE8E
:10009000CFEFD0E1DEBFCDBF0E9452000C94A10093
:1000A0000C9400008FEF84BB88E080936100809304
:1000B0006200A4E6B0E08C93E5E6F0E0808380E1A6
:1000C0008C93808380E882B983B9E3E6F0E040E96D
:1000D00034E992ED27ED03990BC025BB5FEF6FED7F
:1000E00080E1515060408040E1F700C00000F3CF54
:1000F0000F990BC095BB5FEF6FED80E151506040F1
:100100008040E1F700C00000E6CF808184FD0BC095
:1001100035BB5FEF6FED80E1515060408040E1F70B
:1001200000C00000D8CF808183FDD5CF45BB5FEFF5
:100130006FED80E1515060408040E1F700C0000069
:06014000CACFF894FFCFC6
:00000001FF
